:0607BA00CEF85EFE1AAE4F
:1007C0006EF86EF4008825FA44D0017006C37FE00D
:1007D0002EF42EF8EAA11EFE8EF2007805C8500411
:1007E00000056406000707CE017802C900F0D408AE
:1007F00014E490060107A5F045F201F0CE0C67F075
:1008000002C200002ECE45F02B912A9046F006F051
:1008100046F00A0229F005F2A5F001F0CE0C67F0CF
:1008200002C201001ECE45F046F046F02B912A9000
:100830000A0229F005F2A5F001F0CE0C67F002C221
:1008400002000FCE45F046F046F02B912A9046F07C
:100850000A0229F005F2A5F001F0CE0C67F03DC2C6
:1008600003000082000011903CEF00E013903EEF87
:10087000139040EF139042EF139044EF139046EF24
:10088000139048EF11904AEF11904BEF82A0A4F221
:10089000D2A059F2D2A05AF2D0A05BF2D2A05CF260
:1008A000D0A05DF2E2A059F2E2A05AF2E0A05BF221
:1008B000E2A05CF2E0A05DF280801A9020812A9193
:1008C000038144D04A90138001301190A4F200E0DB
:1008D00000F0D0077EE000F0D0077DE000F0D00708
:0A0CE600CEF85EFC5EF41090A5F25B
:100CF000008110904BEF0EC901701CC9027002C830
:100D000000F0080E037002C800F0A80E047002C8BC
:100D100000F0FC0E129048EF09C905F400E01390B2
:100D200048EF10924AEF129046EF43F001E01EF4B4
:100D30001EFC8EF210800420047017C80000119071
:100D40004BEF020011904AEF00001190A3F21290B5
:100D500048EF09C905F400E0139048EF10924AEFFC
:100D6000129046EF43F001E0E2CE108002200270C4
:100D70000AC8000011904BEF010011904AEF0200E9
:100D80001190A3F23ECE129040EF15C902001190CF
:100D90004BEF129C3EEFC0901190A2F2C5F081E0A3
:100DA00013903EEF129040EFFFE0139040EF0100F0
:100DB0001190A3F226CE10903CEF0FC904001190C1
:100DC0004BEF0104129044EFFFE0129246EF27F040
:100DD00001C881041194A3F214CE030011904BEFCB
:100DE000129C42EFC0901190A2F2C5F081E01390E6
:100DF00042EF129046EF81E0139046EF0100119010
:100E0000A3F200E000F02E0D1080022002700BC84B
:100E1000000011904BEF010011904AEF0200119079
:100E2000A3F200F0A20E129040EF12C9129C3EEF06
:100E3000C0901190A2F2C5F081E013903EEF1290A5
:100E400040EFFFE0139040EF01001190A3F229CE94
:100E5000129044EF07C8000011904BEF0200119070
:100E6000A3F21FCE10903CEF08C9010011904BEF88
:100E700080A0A1F2A0A0A3F214CE030011904BEF2A
:100E8000129C42EFC0901190A2F2C5F081E0139045
:100E900042EF129046EF81E0139046EF010011906F
:100EA000A3F200E000F02E0D10800220027008C8AE
:100EB000000011904BEF010011904AEF020019CE93
:100EC000129044EF129246EF27F00FC9129C42EFA6
:100ED000C0901190A2F2C5F081E0139042EF25F08E
:100EE00081E0139046EF010004CE000011904BEF1B
:100EF00002001190A3F200E000F02E0D129C42EFD0
:100F00001090A0F2C190129042EF81E0139042EF56
:100F1000129046EF81E0139046EF129044EF129248
:100F200046EF27F008C90104FFE027F001C881045B
:100F30001194A3F206CE000011904BEF0200119025
:080F4000A3F200E000F02E0D09
:08007800000000000000000080
:08008000000000000000000078
:080A78005EF40000119011F082
:100A8000119012F0119013F0119014F0119015F0D4
:100A9000119016F0119017F0119018F0119019F0B4
:100AA00011901AF011901BF011901CF011901DF094
:100AB00011901EF011901FF000E445F046F0520234
:100AC000050309A2C4E981E41F740055F6C51EF4AC
:020AD0001FFE07
:0405320008ED1FFEB3
:02052E00F7EBE9
:020530001FFEAC
:04043C006EF80088CE
:1004400025FA1F7003C17FE02EF81FFE25F206C9B2
:100450008080000106F009AAC4E907CE808000016F
:0E04600006F05202050309A2C4E900E0EDCE49
:020006000FFEEB
:020552001FFE8A
:0A09F400000106F008A0C4E902F0BB
:0E116200CEFF6EF0109000F04EF0000001F095
:0C117000F4090EF0119000F02EF08EFF3C
:080FB800CEF96EF0109000F07C
:100FC0004EF0010001F0F4090EF0119000F02EF047
:040FD0008EF90FFE89
:0E029200CEF96EF0109000F04EF0020001F078
:0E02A000F4090EF0119000F02EF08EF90FFE12
:0202AE00CEF987
:1002B0006EF0109000F04EF0030001F0F4090EF023
:0A02C000119000F02EF08EF90FFEF1
:100F8000CEF96EF0109000F04EF0040001F0F4097C
:0C0F90000EF0119000F02EF08EF90FFE14
:0E016200CEF96EF0109000F04EF0050001F0A6
:0E017000F4090EF0119000F02EF08EF90FFE43
:02017E00CEF9B8
:100180006EF0109000F04EF0060001F0F4090EF051
:0A019000119000F02EF08EF90FFE22
:080F4800CEF96EF0109000F0EC
:100F50004EF0070001F0F4090EF0119000F02EF0B1
:040F60008EF90FFEF9
:0C0F6400CEF96EF0109000F04EF0080086
:100F700001F0F4090EF0119000F02EF08EF90FFE42
:1011D000CEF96EF0109000F04EF0090001F0F40925
:0C11E0000EF0119000F02EF08EF90FFEC2
:0C0FF400CEF96EF0109000F04EF00A00F4
:1010000001F0F4090EF0119000F02EF08EF90FFEB1
:0C11B400CEF96EF0109000F04EF00B0031
:1011C00001F0F4090EF0119000F02EF08EF90FFEF0
:06121A00CEF96EF0109009
:1012200000F04EF00C0001F0F4090EF0119000F007
:061230002EF08EF90FFE06
:04031C00CEF96EF0B8
:10032000109000F04EF00D0001F0F4090EF0119065
:0803300000F02EF08EF90FFE23
:08033800CEF96EF0109000F008
:100340004EF00E0001F0F4090EF0119000F02EF0C6
:040350008EF90FFE15
:1003F000CEF96EF0109000F04EF00F0001F0F4090D
:0C0400000EF0119000F02EF08EF90FFEAF
:04040C00CEF96EF0C7
:10041000109000F04EF0100001F0F4090EF0119071
:0804200000F02EF08EF90FFE32
:0202EE00CEF947
:1002F0006EF0109000F04EF0110001F0F4090EF0D5
:0A030000119000F02EF08EF90FFEB0
:0602CA00CEF96EF0109069
:1002D00000F04EF0120001F0F4090EF0119000F061
:0602E0002EF08EF90FFE66
:0C035400CEF96EF0109000F04EF0130097
:1003600001F0F4090EF0119000F02EF08EF90FFE5E
:04117C00CEF96EF04A
:10118000109000F04EF0140001F0F4090EF01190F0
:0811900000F02EF08EF90FFEB5
:10037000CEF96EF0109000F04EF0150001F0F40987
:0C0380000EF0119000F02EF08EF90FFE30
:08119800CEF96EF0109000F09A
:1011A0004EF0160001F0F4090EF0119000F02EF050
:0411B0008EF90FFEA7
:10098000CEF96EF0109000F04EF0170001F0F4096F
:0C0990000EF0119000F02EF08EF90FFE1A
:1008E000CEF96EF0109000F04EF0180001F0F4090F
:0C08F0000EF0119000F02EF08EF90FFEBB
:0408FC00CEF96EF0D3
:10090000109000F04EF0190001F0F4090EF0119073
:0809100000F02EF08EF90FFE3D
:08091800CEF96EF0109000F022
:100920004EF01A0001F0F4090EF0119000F02EF0D4
:040930008EF90FFE2F
:10101000CEF96EF0109000F04EF01B0001F0F409D4
:0C1020000EF0119000F02EF08EF90FFE83
:040F9C00CEF96EF02C
:100FA000109000F04EF01C0001F0F4090EF01190CA
:080FB00000F02EF08EF90FFE97
:0A014600CEF96EF0109000F04EF0BC
:100150001D0001F0F4090EF0119000F02EF08EF960
:020160000FFE90
:0A053600CEF96EF0109000F04EF0C8
:100540001E0001F0F4090EF0119000F02EF08EF96B
:020550000FFE9C
:02000800621183
:04000C00B80F060023
:100010009202AE02800F060062017E01480F640F5B
:10002000D0110600F40F060006000600B4111A12E3
:10003000060006001C033803060006000600060042
:10004000F0030C040600060006000600EE02CA02D9
:10005000060006000600060054037C117003981188
:100060008009E008FC0818090600101006009C0F23
:080070004601060006003605FA
:0209FE0001F006
:100A0000D60BA2A013F0B2A013F001F0C40633CEAF
:100A1000010001F02C1013900AEE01F0280412904E
:100A20000AEE2070035103C02C00010102CEB00079
:100A30000401139062EA82A037F96400000101F01A
:100A40006E046400000101F06E046400000101F016
:100A50006E04129062EA139032F980A037F96400B4
:100A6000000101F06E046400000101F06E046400F6
:080A7000000101F06E04CCCE80
:0C06C400A2A051F2A0A053F2A0A052F29C
:1006D000A2A055F2A0A054F292A036F980A036F95B
:1006E00078006901139030F910002701139032F956
:0606F00082A037F91FFE95
:0A0BD600CEF880A02AF0A2A02AF0B9
:100BE000B2A02AF0E0A02AF0F2A02AF000001190B2
:100BF0002CF011902EF011902FF001F0340901F03B
:100C0000F60601F0D20A01F08C0301F0D40F80A0A7
:100C100051F290A051F280A0F2F290A0F2F282A0E4
:100C2000F0F201F02E0501F0780A0000119017F0A3
:100C3000119016F0119015F0119014F0119013F01E
:100C4000119012F0119011F0119010F011901FF00E
:100C500011901EF011901DF011901CF011901BF0DE
:100C600011901AF0119019F0119018F0B2A017F02D
:100C70000A0203030F0001F03C0480A014F0DA0222
:100C80000C030C0001F03C04F0A012F0F2A01AF0EA
:100C900001F03205010011900FF001F0280400006E
:100CA0004EF040021F03010001F0BA0702E11200FA
:100CB00001015EF040021F03020001F0540502E151
:0E0CC00001F01C01A2A013F0B2A013F08EF2FE
:04102C00CEF85EF8A4
:101030000088000011905FEA01E08082077204C31B
:101040007B917A90F912FAC82A801190F2F280A06E
:10105000F1F228E001F06E04808000010778005171
:1010600002C300F05C111B911A9008A0020102F06B
:101070001EF88EF21090D1F200012B912A9010925E
:10108000D0F200036D926E930382138325F0F0CEAD
:101090001090D3F200012B912A901092D2F200030B
:1010A0006D926E930382138325F0E2CE1090D5F2F9
:1010B00000012B912A901092D4F200036D926E934E
:1010C0000382138325F0D4CE1090D7F200012B9128
:1010D0002A901092D6F200036D926E9303821383CE
:1010E00025F0C6CE1090D9F200012B912A901092D3
:1010F000D8F200036D926E930382138325F000F003
:1011000070101090DBF200012B912A901092DAF20D
:1011100000036D926E930382138325F000F070102C
:101120001090DDF200012B912A901092DCF2000366
:101130006D926E930382138325F000F0701010906F
:10114000DFF200012B912A901092DEF200036D92E3
:101150006E930382138325F000F0701000E000F01E
:0211600070100D
:080428005A0011900EF081A0B2
:0C0430000EF0FAC9A50011900EF01FFE9E
:060CDA00CEF801F0E60C6B
:060CE00001F0E6028EF2B5
:0802E6000100119035EF1FFE2D
:04030A0000F09A0164
:0C0FD40082A002F092A002F0B0A002F097
:100FE000A2A002F090A003F080A003F0F0A003F014
:040FF00008ED1FFEEB
:0C09340082A051F292A051F2A2A051F258
:1009400080A053F280A052F290A053F290A052F2F5
:10095000A0A053F2A0A052F282A055F282A054F2BD
:1009600092A055F292A054F2A2A055F2A2A054F285
:1009700082A050F292A050F2A2A050F200F02804FF
:0A06F60082A059F292A059F2A2A0CE
:1007000059F2B2A059F2C2A059F2D2A059F2E2A015
:1007100059F2F2A059F280A05BF280A05AF290A0A8
:100720005BF290A05AF2A0A05BF2A0A05AF2B0A097
:100730005BF2B0A05AF2C0A05BF2C0A05AF2D0A007
:100740005BF2D0A05AF2E0A05BF2E0A05AF2F0A077
:100750005BF2F0A05AF282A05DF282A05CF292A05D
:100760005DF292A05CF2A2A05DF2A2A05CF2B2A047
:100770005DF2B2A05CF2C2A05DF2C2A05CF2D2A0B7
:100780005DF2D2A05CF2E2A05DF2E2A05CF2F2A027
:100790005DF2F2A05CF282A058F292A058F2A2A000
:1007A00058F2B2A058F2C2A058F2D2A058F2E2A079
:0A07B00058F2F2A058F200F02804FD
:0E0AD20082A061F292A061F2A0A061F2B2A037
:100AE00061F2C2A061F2D2A061F2E2A061F2F2A0D2
:100AF00061F280A063F280A062F290A063F290A005
:100B000062F2A0A063F2A0A062F2B0A063F2B0A073
:100B100062F2C0A063F2C0A062F2D0A063F2D0A0E3
:100B200062F2E0A063F2E0A062F2F0A063F2F0A053
:100B300062F282A065F282A064F292A065F292A0B5
:100B400064F2A2A065F2A2A064F2B2A065F2B2A023
:100B500064F2C2A065F2C2A064F2D2A065F2D2A093
:100B600064F2E2A065F2E2A064F2F2A065F2F2A003
:100B700064F282A060F292A060F2A2A060F2B2A041
:100B800060F2C2A060F2D2A060F2E2A060F2F2A035
:060B900060F200F02804F1
:04038C0080A069F2F2
:1003900090A069F2A0A069F2B0A069F2C0A069F2D1
:1003A000D0A069F280A06BF280A06AF290A06BF2FC
:1003B00090A06AF2A0A06BF2A0A06AF2B0A06BF2CB
:1003C000B0A06AF2C0A06BF2C0A06AF2D0A06BF23B
:1003D000D0A06AF282A068F292A068F2A2A068F2AD
:1003E000B2A068F2C2A068F2D2A068F200F02804BD
:02046E00CEF8C6
:100470006EF45EFC5EF805F805F40006010001F07C
:100480009C0980A0EAF892A0EAF8FF001190E8F831
:100490001190ECF885F08078005907C07B917A9034
:1004A0002B912A908880998105FC8078005902C898
:1004B0007FEC00068078005915C304CE8010FF61E0
:1004C00005F4011645F080740055F8C245F408C9DA
:1004D0007B917A902B912A904880598105FC02CE1D
:1004E0007FECFF1601F0280400001190E9F880A0CD
:1004F000EBF81090E9F8000105F21090EDF8038395
:1005000025F008CE1090E9F8000105F21090EDF802
:10051000038325F0C7F0F6C1007605C982A0EBF889
:0E052000FF167FECDFCE1EF81EFC2EF48EF2CE
:020002003612B4
:0E01020074109010AC10C810E41002112011FF
:020110003E119E
:08008800D020684201000020B5
:070090002020202020202089
:0A011200004B000000020000000096
:010097000068
:02000000C4E951
:020004003812B0
:0A12360001CEFFCE00E000E200E46C
:1012400000E60008E0098AF0579088E8F079FCC1D0
:101250000078FAC15A0CA50D119C0EF081A00EF079
:10126000FBC9119D0EF0000A0CF0F800AF905290EF
:10127000FF7002C8FF7120C9AF905292AF90529494
:10128000AF905096AF90509780E4F0C901A20BC880
:1012900001A409C86F90029882E07F90239882E2AF
:1012A000FEE4F8C8E3CE6F90009881E07F9021982B
:1012B00081E2FFE4F8C8DACE01F00A0000001190E4
:0612C00000F000F0FE0941
:02000A001FFED7
:0800F80078003CEF80000000DD
:02010000FFFFFF
:107FE000FFFFFFFFFFFFFFFFFFFFFFFFFFFFFFFFA1
:107FF000FFFFFFFFFFFFFFFFFFFFFFFFFFFFFFFF91
:04099C00007005C919
:1009A00001700AC902700FC91FFE82A0E3F882A07D
:1009B000E7F8D0A0E2F81FFE82A0EBF882A0EFF8E3
:1009C000D0A0EAF81FFE82A063F382A06BF3A0A080
:0409D00062F31FFEB1
:0C055400CEF85EFE1AAE5EFC5EF85EF4AF
:10056000008800700FC9017002C800F07A0602709E
:1005700002C800F082067FE01EF41EF81EFCEAA10D
:100580001EFE8EF20000800100E244BC6EF0C290BC
:1005900002B26EF001F0D40904E12EF000700051B7
:1005A0000052005302C87EE0E7CEFFE005F404D01D
:1005B000037002C37DE0E0CE05D0027002C37CE090
:1005C000DBCE06D0017002C37BE0D6CE07D001702F
:1005D00002C37AE0D1CE08D0017002C379E0CCCE5C
:1005E00000E013905CEF13905EEF139060EF1390B8
:1005F00062EF119064EF82A091F201F09A061090E0
:1006000092F20089F920008980801A9090810381FC
:1006100010801030119092F2C2A092F2109093F2DA
:1006200000898020008944BC05D02A9004D1038130
:1006300006D04A90138007D15A91038108D06A905E
:10064000138090810381119193F2119494F2109090
:1006500095F20089F020008950800F20908103815D
:10066000119195F282A096F292A096F2A2A096F233
:10067000B2A096F200E000F0780500E001E200F0A0
:100680008A0525F000E27B937B927B917A903B93E5
:0A0690003B923B913A9000F08A057E
:06019A00CEF85EFC10909F
:1001A00092F20120007034C812905EEF129260EF5C
:1001B00027F019C9109096F20820007012C8129CFE
:1001C0005CEFC090119090F2C5F081E013905CEF6D
:1001D00025F081E0139060EF80A091F200E01EFC1A
:1001E0008EF27FE0FCCE109091F2012000700EC8DC
:1001F000129062EF09C905FC00E0139062EF1092C3
:1002000064EF12905EEFC3F001E0E9CE7EE0E7CE4E
:1002100012905EEF129260EF27F02CC9109096F2C8
:1002200007200082109064EF2380119064EF82A079
:1002300096F292A096F2A2A096F2129C5CEF109019
:1002400090F2C19012905CEF81E013905CEF1290FD
:1002500060EF81E0139060EF01A209C812905EEF99
:10026000129260EF27F006C900E000F0DE01010005
:1002700001F00E03129062EF09C905FC00E0139033
:1002800062EF109264EF12905EEFC3F001E000F0B5
:02029000DE018D
:02030E0000826B
:0C03100010905EEA238011905EEA1FFE50
:04011C0092A059F262
:1001200090A05AF290A05BF292A05CF290A05DF2D7
:1001300080A059F280A05AF282A05BF282A05CF209
:0601400082A05DF21FFE2B
:06069A0092A059F292A0AB
:1006A0005AF292A05BF292A05CF292A05DF282A05C
:1006B00059F282A05AF282A05BF282A05CF282A080
:0406C0005DF21FFECA
:08009800000000000000000060
:0200A00000005E
:0E00A200010000000000000078EF78EF000081
:1000B00078EF0000000000000208010000000000CE
:1000C0008EEF8EEF00008EEF0000000000000208AF
:1000D000020002EA52EA02EA02EA000002EA000032
:1000E0000000000066EF7CEF92EF000000000000CF
:0400F000000000000C
:0400F4000000000008
:0C09D400CEF97EF06EF85EFC1AACCBF0A1
:1009E00012005498349001F0EC1135901EFC2EF852
:0409F0003EF08EF354
:0411EC00200D00E4EE
:1011F00000E61B971B961B951B941B931B921B9140
:101200001A9087F4A586B58705C188849985A98633
:0A121000B98700A0FF1DEDC81FFE06
:020CCE00CEF85E
:0A0CD0006EF801F0960B2EF88EF27C
:0A0B9600007302C829F01BCE6EF4B4
:100BA00005F825FA1D981C991D9A1C9B007BFAC814
:100BB000A9F88084208844F8308644F6618907F8D3
:100BC00003C328883989FF148880998105F2408001
:060BD00000012EF41FFEDF
:00000001FF
